:100000000C9434000C94BD020C94EB020C94190374
:100010000C9451000C9451000C9451000C944C021F
:100020000C9451000C9451000C94DF010C9451007D
:100030000C9451000C9446020C94BC010C94510099
:100040000C9451000C9451000C948C020C945100AF
:100050000C9451000C9451000C9451000C945100DC
:100060000C9451000C94510011241FBECFEFD8E026
:10007000DEBFCDBF11E0A0E0B1E0EAE3F9E102C0EC
:1000800005900D92A631B107D9F721E0A6E1B1E0C4
:1000900001C01D92A03AB207E1F70E9414090C9426
:1000A0009B0C0C940000CF93DF939B01FC01DC01BF
:1000B000A60FB71F80E090E0215031098217930707
:1000C0001CF0DF91CF91089541915E91EF015A9319
:1000D0004C930196F1CFCF92DF92EF92FF920F9364
:1000E0001F93CF93DF93FC01EB019A01892B41F51C
:1000F00080E38883CC24C394D12CC60140E38217CB
:1001000093079CF189010C191D092C153D0514F468
:1001100000E010E07601E00EF11EB701CE010E9472
:100120005300CC0DDD1DC00FD11F1882C701DF9118
:10013000CF911F910F91FF90EF90DF90CF90089596
:100140008B01C12CD12C8AE0E82EF12CCF01B70114
:100150000E941E0A9FEFC91AD90A805DF801819397
:100160008F01FB01309791F7C8CFFE01E80FF91F0F
:1001700040830196C4CF2F923F924F925F926F922D
:100180007F928F929F92AF92BF92CF92DF92EF9227
:10019000FF920F931F93CF93DF93CDB7DEB767978F
:1001A0000FB6F894DEBF0FBECDBF6B017C018A0194
:1001B000298B3A8B20E030E0A901C701B6010E94EB
:1001C000B30A212C312C87FF0AC08DE2F80180830D
:1001D000F7FAF094F7F8F09422242394312CC70115
:1001E000B6010E94B80A4B01072E000C880B990B30
:1001F0000E94F00A69837A838B839C8329813A81E8
:100200004B815C81C701B6010E94460A69837D8BE0
:100210006C0180E090E021E030E03F8B2E8B2AE003
:10022000E989FA898E179F070CF465C0B801620D41
:10023000731D40E050E0C4010E946B00820D931DCD
:10024000F801E80FF91F2EE2208301967C01E00EF1
:10025000F11E2E893F89B901330F880B990B0E943B
:10026000F00A49805D883601A30192016D837E8387
:100270008F8398876D817E818F8198850E94A00BE6
:1002800020E030E040E05FE369877A878B879C87D6
:1002900069857A858B859C850E94470A6D877E8754
:1002A0008F87988B6D857E858F8598890E94B80A87
:1002B000962F872F49895A89B7019B8B8C8B8B8905
:1002C0009C8967960FB6F894DEBF0FBECDBFDF9155
:1002D000CF911F910F91FF90EF90DF90CF90BF9043
:1002E000AF909F908F907F906F905F904F903F90D6
:1002F0002F900C946B006E897F89269FA001279F09
:10030000500D11245F8B4E8B01968ACF64E070E014
:1003100084E290E00E94610362E070E08AE290E093
:100320000E94610363E070E08AE290E00E94610352
:1003300065E070E084E290E00E94560364E070E0C3
:100340008AE290E00E94560362E070E08BE290E067
:100350000E94610363E070E08BE290E00E94610321
:1003600065E070E085E290E00E94610364E070E087
:100370008BE290E00C9461031F921FB61F92112430
:100380008F939F93AF93BF9380912A0190912B01FC
:10039000A0912C01B0912D010196A11DB11D80935A
:1003A0002A0190932B01A0932C01B0932D01BF91B2
:1003B000AF919F918F911F901FBE1F9018951F9214
:1003C0000F920FB60F9211242F933F934F935F9389
:1003D0006F937F938F939F93AF93BF93EF93FF930D
:1003E00046E251E067E870E086E890E00E947D0315
:1003F00080912201811579F52091240180912601B7
:1004000090912701E091230121110197A0E0B0E034
:1004100024E0E29FF0011124EA5EFE4F8083918385
:10042000A283B383809123018F5F80932301809106
:100430002301833041F5109223018091250181151C
:10044000D9F081E00E94BC061092250181E08093E2
:10045000220110922401FF91EF91BF91AF919F91E2
:100460008F917F916F915F914F913F912F910F905D
:100470000FBE0F901F90189580E00E94BC0681E08F
:1004800080932501E3CF0E94B006E5CF8F9381E0F2
:10049000809324018F9118951F920F920FB60F929F
:1004A00011242F933F934F935F936F937F938F9379
:1004B0009F93AF93BF93EF93FF93809129018F5F39
:1004C0008093290160912801809100018115F1F04C
:1004D0006039C0F46F5F6093280183EB90E00E9465
:1004E000D106FF91EF91BF91AF919F918F917F9135
:1004F0006F915F914F913F912F910F900FBE0F9091
:100500001F901895109200016150E5CF6111FCCF4A
:1005100081E080930001E5CF1F920F920FB60F92FA
:1005200011242F933F934F935F936F937F938F93F8
:100530009F93AF93BF93EF93FF930E94810765E072
:1005400070E0811115C085E290E00E945603FF9192
:10055000EF91BF91AF919F918F917F916F915F913B
:100560004F913F912F910F900FBE0F901F901895B4
:1005700085E290E00E946103EACF1F920F920FB6CE
:100580000F9211242F933F934F935F936F937F9319
:100590008F939F93AF93BF93EF93FF9365E070E0CA
:1005A00085E290E00E94610364E070E08BE290E0FD
:1005B0000E946D03FF91EF91BF91AF919F918F9139
:1005C0007F916F915F914F913F912F910F900FBE4F
:1005D0000F901F9018951F920F920FB60F92112433
:1005E0002F933F934F935F936F937F938F939F933B
:1005F000AF93BF93EF93FF9365E070E085E290E0E7
:100600000E94560364E070E08BE290E00E946D036C
:10061000FF91EF91BF91AF919F918F917F916F91DA
:100620005F914F913F912F910F900FBE0F901F90B0
:1006300018951F920F920FB60F9211242F933F938C
:100640004F935F936F937F938F939F93AF93BF93DA
:10065000EF93FF9364E070E083E290E00E9449032F
:10066000009731F464E070E08BE290E00E946D034B
:10067000FF91EF91BF91AF919F918F917F916F917A
:100680005F914F913F912F910F900FBE0F901F9050
:100690001895FC01208181E090E002C0880F991F2D
:1006A0006A95E2F730E0822393230895FC0180816C
:1006B00021E030E001C0220F6A95EAF7822B8083A7
:1006C0000895FC01208181E090E001C0880F6A95C7
:1006D000EAF78095822380830895FC01808121E0E0
:1006E00030E001C0220F6A95EAF7822780830895DF
:1006F000DB01FA019C9380830895DC01FB018C915E
:100700009081FA01918380830895FC017183608355
:100710001382128215821482578346830895FC0146
:1007200081E042815381248135814217530709F0CA
:1007300080E00895CF93DF93FC01EB0184819581E4
:100740002281338182179307B9F0A081B181A80F6C
:10075000B91F2C9128832681378121503109281710
:10076000390739F001969583848381E0DF91CF9139
:10077000089580E090E0F7CF80E0F8CFFC01DB0146
:10078000228133818681978101978217930789F0AF
:10079000C9010196448155814817590769F04C9168
:1007A000A081B181A20FB31F4C939383828381E018
:1007B000089580E090E0EECF80E008956530D0F4B9
:1007C0001CBA811579F080916900660F660F682B5D
:1007D0006093690061E070E08DE390E00E94560351
:1007E00081E0089580916900862B8093690060E024
:1007F00070E0F2CF80E00895CF93C62F811531F0DD
:1008000060E070E08DE390E00E945603C11539F07E
:1008100061E070E08DE390E0CF910C945603CF91AE
:100820000895CF93C62F811531F060E070E08DE31D
:1008300090E00E946103C11539F061E070E08DE342
:1008400090E0CF910C946103CF910895CF93DF9303
:10085000883178F58F3069F1C82FD0E0883078F48E
:1008600060E070E088E690E00E945603BE018BE6EF
:1008700090E00E94560381E0DF91CF9108958F3080
:1008800060F461E070E088E690E00E945603BE01EB
:10089000685071098CE690E0ECCF62E070E088E689
:1008A00090E00E945603BE01605171098DE690E010
:1008B000E0CF80E0E1CFCF93DF93883178F58F30C0
:1008C00069F1C82FD0E0883078F460E070E088E605
:1008D00090E00E946103BE018BE690E00E946103FC
:1008E00081E0DF91CF9108958F3060F461E070E096
:1008F00088E690E00E946103BE01685071098CE6B1
:1009000090E0ECCF62E070E088E690E00E94610346
:10091000BE01605171098DE690E0E0CF80E0E1CF4B
:10092000CF92EF920F931F93CF93DF93C82FD42FC3
:10093000122F843008F07BC0842F8C29862B8830BE
:1009400008F075C0862F8D7F843009F470C016BC06
:1009500015BA14BC15BC653009F055C063E070E0F1
:1009600085E490E00E94560361E070E084E490E04A
:100970000E94610360E070E084E490E00E9456030E
:100980008C2F8D7F8130A1F466E070E08AE290E0E8
:100990000E94560367E070E084E490E00E945603F2
:1009A000111531F066E070E084E490E00E94560397
:1009B000C250C230A0F465E070E08AE290E00E948C
:1009C000560365E070E084E490E00E945603111540
:1009D00031F064E070E084E490E00E94560385B555
:1009E000807FD82BD5BD07BDE8BC80916E00807F8D
:1009F000C82AC0926E0081E0DF91CF911F910F91C4
:100A0000EF90CF900895673069F463E070E085E47B
:100A100090E00E94560361E070E084E490E00E9460
:100A20005603A8CF84B5807F862B84BDA9CF80E0F4
:100A3000E3CFBF92CF92DF92EF92FF920F931F937B
:100A4000CF93DF93C82FD62FD42EB22E843008F048
:100A50007BC081E0663108F480E0D33109F474C0D2
:100A6000811172C09D2D9C29983008F063C044E824
:100A700050E065E870E080E090E00E94780316BAEC
:100A8000109280001092810010928200809180006C
:100A9000D3708D2B809380008091810080938100A2
:100AA0008C2F8D7F8130A1F461E070E084E290E0D2
:100AB0000E94560367E070E080E890E00E945603D1
:100AC000B11431F066E070E080E890E00E945603D7
:100AD000C250C230A0F462E070E084E290E00E9474
:100AE000560365E070E080E890E00E945603B11480
:100AF00031F064E070E080E890E00E94560380915D
:100B00008100807FD82AD092810048E850E069E8CF
:100B100070E0C8010E9478034AE850E06BE870E09A
:100B2000C7010E94780380916F00807FC82AC0921D
:100B30006F0081E0DF91CF911F910F91FF90EF90B7
:100B4000DF90CF90BF90089580E0F4CFCF92EF92E6
:100B50000F931F93CF93DF93C82FD42F122F84307E
:100B600008F084C0842F8C29862B883008F07EC042
:100B7000862F8D7F843009F479C01092B20017BAA5
:100B80001092B0001092B100653009F059C063E0D6
:100B900070E081EB90E00E94560361E070E080EB32
:100BA00090E00E94610360E070E080EB90E00E94C2
:100BB00056038C2F8D7F8130A1F463E070E084E2D6
:100BC00090E00E94560367E070E080EB90E00E94A6
:100BD0005603111531F066E070E080EB90E00E9462
:100BE0005603C250C230A0F463E070E08AE290E0A5
:100BF0000E94560365E070E080EB90E00E9456038F
:100C0000111531F064E070E080EB90E00E94560333
:100C10008091B100807FD82BD093B1000093B300B6
:100C2000E092B40080917000807FC82AC09270006A
:100C300081E0DF91CF911F910F91EF90CF900895B8
:100C4000673069F463E070E081EB90E00E94560346
:100C500061E070E080EB90E00E945603A4CF8091A9
:100C6000B000807F862B8093B000A3CF80E0E1CFDF
:100C70001F93CF93DF93182FC62FD42F67E070E018
:100C800081E890E00E94560366E070E081E890E021
:100C9000111509F457C00E945603D115C1F060E048
:100CA00070E084E290E00E94610360E070E085E221
:100CB00090E00E94560367E070E08AE290E00E94B4
:100CC000610367E070E08BE290E00E945603C1157B
:100CD000E1F166E070E081E890E00E946D0367E07A
:100CE00070E08AE290E00E94610367E070E08BE2CE
:100CF00090E00E94560366E070E08BE790E00E946F
:100D0000610367E070E080E590E00E94610362E0CB
:100D100070E080E590E00E94560366E070E080E5B8
:100D200090E00E94560365E070E08FE690E00E943C
:100D3000560365E070E086E390E0DF91CF911F916C
:100D40000C9456030E946103A8CF60E070E084E237
:100D500090E00E94610360E070E085E290E0E1CF06
:100D600066E070E081E890E00E946D0365E070E06D
:100D700086E390E00C94560362E070E0811561F028
:100D800080E590E00E9456030E94B00665E070E0A6
:100D900086E390E00C94560380E590E00E946103A6
:100DA000F3CFFC01862F48E850E069E870E0E938AD
:100DB000F10539F0EB38F10549F44AE850E06BE809
:100DC00070E090E00E94780381E008958083FCCF7A
:100DD0000F931F9300912A0110912B0120912C0158
:100DE00030912D01A0E0B0E040912A0150912B01FB
:100DF00060912C0170912D01401B510B620B730B04
:100E0000481759076A077B0778F31F910F910895D8
:100E1000CF93DF93D82FC62FCA0144EC50E065EC86
:100E200070E00E94780344E650E06EE271E082E9EF
:100E300091E00E94850367E070E082EC90E00E9400
:100E4000610366E070E082EC90E00E94610360E084
:100E500070E082EC90E00E94610361E070E080EC61
:100E600090E00E94610365E070E082EC90E00E94F7
:100E7000560364E070E082EC90E00E94610363E05E
:100E800070E082EC90E00E94610360E070E081EC31
:100E900090E00E94610362E070E081EC90E00E94CB
:100EA000610362E070E082EC90E00E94560361E032
:100EB00070E082EC90E00E945603D11531F064E0BE
:100EC00070E081EC90E00E945603C11531F063E0C0
:100ED00070E081EC90E00E94560367E070E081ECE6
:100EE00090E00E94560366E070E081EC90E00E9482
:100EF000610365E070E081EC90E0DF91CF910C94AC
:100F0000610366EC70E082E991E00C94BE03BC01E1
:100F100082E991E00C949A03CF92DF92EF92FF92D4
:100F20000F931F93CF937C01C42F411571F0461787
:100F3000D8F4C42ED12C00E010E0C701800F911F1F
:100F40000E94870781110AC0C02F8C2FCF911F915B
:100F50000F91FF90EF90DF90CF9008950F5F1F4F9C
:100F60000C151D0551F7F1CFC0E0EFCFCF93C82F7F
:100F700065E070E080EC90E00E944903892BC1F3AA
:100F8000C093C600CF9108950F931F93CF938C0108
:100F9000C0E0F801EC0FF11D8081811104C0CF91F8
:100FA0001F910F9108950E94B607CF5FF2CF0F9364
:100FB0001F93CF93DF93082F162FD42FC22F842F88
:100FC000822B883008F055C010927C0010927A0075
:100FD00010927B0010927E0067E070E08CE790E05A
:100FE0000E94610366E070E08CE790E00115D1F1AA
:100FF0000E94610365E070E08CE790E00E9461036D
:1010000065E070E08AE790E0111579F10E945603DF
:1010100063E070E08AE790E00E94610364E070E0C2
:101020008AE790E00E94610380917A00887FD82B44
:10103000D0937A0080917B00887FC82BC0937B007F
:1010400067E070E08AE790E00E94560366E070E097
:101050008AE790E00E94560381E0DF91CF911F91D3
:101060000F9108950E945603C5CF0E946103C0E00E
:10107000CFCF80E0F2CF803130F590917C00907F2F
:10108000982B90937C0010927E00863030F4682F6D
:1010900070E08EE790E00E94560366E070E08AE719
:1010A00090E00E94560364E070E08AE790E00E94BE
:1010B0004903892BC1F364E070E08AE790E00E9465
:1010C000560381E0089580E00895CF93DF93EC010B
:1010D00066E070E08AE790E00E94560364E070E00A
:1010E0008AE790E00E944903892BC1F364E070E035
:1010F0008AE790E00E9456038091780090917900F1
:1011000099838883DF91CF910895FF920F931F9366
:10111000CF93DF9300D0CDB7DEB7F62E072F0E9416
:101120003B08182F811541F0CE0101960E946508F9
:101130008F2D902F0E946508812F0F900F90DF91C7
:10114000CF911F910F91FF900895CF93DF938091DE
:101150009A0190919B010E94480CEC010A9711F0B2
:101160002196A9F7DF91CF910895CF93DF930E9445
:10117000180CEC01892B09F01882DF91CF910895AA
:10118000FC0110820895CF92DF92FF920F931F937C
:10119000CF93DF93EC01F42E6901062E000C770B40
:1011A0000E94180C8C01009799F08C1B9D0BEC0190
:1011B0002196CC15DD0560F4F801F082118281E002
:1011C000DF91CF911F910F91FF90DF90CF90089505
:1011D00080E0F6CF9C01FB01108280E0682F70E078
:1011E000D901A80FB11D9C91911539F08F5F481757
:1011F000A8F7B901CF010C940D0C8417D0F780E04B
:1012000050E0461B570B90E305C06E0F7F1FDB01BC
:101210009C938F5F682F70E084171506B4F34E0F10
:101220005F1FDA011C92E5CFCDB7DEB7C858D109F0
:101230000FB6F894DEBF0FBECDBFF8940E948601B2
:1012400082E0C82EE12C09EF20E043E062E080E07C
:101250000E9490040091280120E046E063E081E0D4
:101260000E94A60549E150E061E081E00E94080784
:10127000CC24C394E12CF12C0FEF1FEF20E042E0CF
:1012800064E080E00E94190541E061E081E00E9495
:101290003806789480912A0190912B01A0912C011D
:1012A000B0912D016E0121E8C20ED11C88E0F6013B
:1012B000282F11922A95E9F75E0139E7A30EB11C98
:1012C000F50111928A95E9F781E091E00E94C40747
:1012D00088EB9BE00E94E8068BE091E00E94C40747
:1012E00080E08E010B591F4F94E1992E24E6822E47
:1012F0009E012F5F3F4F790140912A0150912B01B0
:1013000060912C0170912D01909122019115A1F312
:10131000F89440911E0150911F016091200170913D
:1013200021014090160150901701609018017090B3
:10133000190134E0839FF0011124D601AE0FBF1FC5
:1013400044195509660977094D935D936D937C9314
:10135000139740911A0150911B0160911C017091EB
:101360001D01409016015090170160901801709077
:101370001901EA0DFB1D44195509660977094083D7
:10138000518362837383811105C0789481E0109248
:101390002201B2CFF801292D11922A95E9F7F70120
:1013A000282D11922A95E9F74AE0B701F6018081CC
:1013B00091810E94230C24E630E04BE360E0C701FA
:1013C0000E94C3084AE0B801F501808191810E9422
:1013D000230C24E130E04BE360E0C8010E94C30825
:1013E000B801C7010E940D0C4AE0B801F6018481E2
:1013F00095810E94230C24E130E04BE360E0C801BA
:101400000E94C308B801C7010E940D0C4AE0B80150
:10141000F501848195810E94230C24E130E04AE0AB
:1014200060E0C8010E94C308B801C7010E940D0C0A
:101430007894C7010E94C40780E0A9CF97FB072ECC
:1014400016F4009407D077FD09D00E94320A07FCF9
:1014500005D03EF4909581959F4F089570956195C4
:101460007F4F0895AA1BBB1B51E107C0AA1FBB1FDA
:10147000A617B70710F0A61BB70B881F991F5A9520
:10148000A9F780959095BC01CD0108955058BB27D0
:10149000AA270E945E0A0C94660B0E94580B38F033
:1014A0000E945F0B20F039F49F3F19F426F40C944E
:1014B000550B0EF4E095E7FB0C944F0BE92F0E94BF
:1014C000770B58F3BA17620773078407950720F064
:1014D00079F4A6F50C94990B0EF4E0950B2EBA2F27
:1014E000A02D0B01B90190010C01CA01A00111242A
:1014F000FF27591B99F0593F50F4503E68F11A16D6
:10150000F040A22F232F342F4427585FF3CF469566
:1015100037952795A795F0405395C9F77EF41F1688
:10152000BA0B620B730B840BBAF09150A1F0FF0F52
:10153000BB1F661F771F881FC2F70EC0BA0F621F3E
:10154000731F841F48F4879577956795B795F7952E
:101550009E3F08F0B0CF9395880F08F09927EE0FC3
:101560009795879508950E942B0B08F481E00895C4
:101570000E94BF0A6894B1110C949A0B08950E94BE
:101580007F0B88F09F5798F0B92F9927B751B0F08B
:10159000E1F0660F771F881F991F1AF0BA95C9F7F7
:1015A00014C0B13091F00E94990BB1E008950C94F1
:1015B000990B672F782F8827B85F39F0B93FCCF3A4
:1015C000869577956795B395D9F73EF49095809574
:1015D000709561957F4F8F4F9F4F0895E89409C094
:1015E00097FB3EF490958095709561957F4F8F4F56
:1015F0009F4F9923A9F0F92F96E9BB279395F6956C
:10160000879577956795B795F111F8CFFAF4BB0FE9
:1016100011F460FF1BC06F5F7F4F8F4F9F4F16C04D
:10162000882311F096E911C0772321F09EE8872FD7
:10163000762F05C0662371F096E8862F70E060E093
:101640002AF09A95660F771F881FDAF7880F96950C
:10165000879597F90895990F0008550FAA0BE0E8B0
:10166000FEEF16161706E807F907C0F01216130664
:10167000E407F50798F0621B730B840B950B39F4A4
:101680000A2661F0232B242B252B21F408950A260A
:1016900009F4A140A6958FEF811D811D089597F94A
:1016A0009F6780E870E060E008959FEF80EC089508
:1016B00000240A9416161706180609060895002431
:1016C0000A9412161306140605060895092E0394AB
:1016D000000C11F4882352F0BB0F40F4BF2B11F41F
:1016E00060FF04C06F5F7F4F8F4F9F4F089557FD7E
:1016F0009058440F551F59F05F3F71F04795880F80
:1017000097FB991F61F09F3F79F087950895121616
:1017100013061406551FF2CF4695F1DF08C01616C2
:1017200017061806991FF1CF869571056105089473
:101730000895E894BB2766277727CB0197F908958A
:101740000E94B30B0C94660B0E94580B38F00E9459
:101750005F0B20F0952311F00C944F0B0C94550B5C
:1017600011240C949A0B0E94770B70F3959FC1F390
:10177000950F50E0551F629FF001729FBB27F00D3F
:10178000B11D639FAA27F00DB11DAA1F649F662794
:10179000B00DA11D661F829F2227B00DA11D621FE3
:1017A000739FB00DA11D621F839FA00D611D221F9D
:1017B000749F3327A00D611D231F849F600D211D81
:1017C000822F762F6A2F11249F5750409AF0F1F004
:1017D00088234AF0EE0FFF1FBB1F661F771F881F6D
:1017E00091505040A9F79E3F510580F00C944F0B4B
:1017F0000C949A0B5F3FE4F3983ED4F3869577956B
:101800006795B795F795E7959F5FC1F7FE2B880F12
:10181000911D9695879597F90895FB01DC010D9030
:101820000020E9F7119701900D920020E1F708954B
:10183000FC018191861721F08823D9F79927089513
:101840003197CF010895BB274A3031F4992322F410
:10185000BDE2909581959F4F0C942F0CBB27FB0107
:101860005527AA27880F991FAA1FA41710F0A41B99
:1018700083955051B9F7A05DAA3308F0A95DA193F3
:10188000009779F7B111B1931192CB010C948B0CA5
:101890000F931F93CF93DF93EC018B8180FF1DC0CB
:1018A00086FF0EC08F7B8B838E819F8101969F83E5
:1018B0008E838A8190E0DF91CF911F910F910895DF
:1018C00082FF19C0E881F9819081092F092E000C4F
:1018D000110B911105C080628B838FEF9FEFEBCFCF
:1018E0003196F983E8838E819F8101969F838E8351
:1018F000C8019927E0CFEA85FB85CE0109958C01C7
:1019000097FFF1CF8B810F3F1F4F19F490E1892B87
:10191000E3CF90E2FCCFDC01FC01672F71917723CC
:10192000E1F7329704C07C916D9370836291AE179A
:0A193000BF07C8F30895F894FFCF35
:10193A00015374617274696E670A00757775206F56
:06194A006D6565650A00F1
:00000001FF
