:100000000C9434000C9481050C948F050C949D0580
:100010000C9451000C9451000C9451000C94300538
:100020000C9451000C9451000C94ED040C9451006C
:100030000C9451000C9451000C94CA040C9451007F
:100040000C9451000C9451000C9458050C945100E0
:100050000C9451000C9451000C9451000C945100DC
:100060000C9451000C94510011241FBECFEFD8E026
:10007000DEBFCDBF11E0A0E0B1E0E2E1FCE002C0F4
:1000800005900D92AC30B107D9F721E0ACE0B1E0BA
:1000900001C01D92AC32B207E1F70E94AC050C948E
:1000A00007060C940000FC017183608313821282A6
:1000B00015821482578346830895FC0181E04281B2
:1000C0005381248135814217530709F080E0089558
:1000D000CF93DF93FC01EB018481958122813381F1
:1000E00082179307B9F0A081B181A80FB91F2C9195
:1000F000288326813781215031092817390739F0A3
:1001000001969583848381E0DF91CF91089580E00B
:1001100090E0F7CF80E0F8CFFC01DB012281338152
:100120008681978101978217930789F0C90101960B
:10013000448155814817590769F04C91A081B181DC
:10014000A20FB31F4C939383828381E0089580E0D4
:1001500090E0EECF80E00895FC01208181E090E006
:1001600002C0880F991F6A95E2F730E0822393233B
:100170000895FC01808121E030E001C0220F6A95E2
:10018000EAF7822B80830895FC01208181E090E0D2
:1001900001C0880F6A95EAF78095822380830895CD
:1001A000FC01808121E030E001C0220F6A95EAF76E
:1001B0008227808308951F93CF93DF93142F062EF9
:1001C000000C770B0E94FC05EC0180E0209711F0F9
:1001D000188381E0DF91CF911F910895DB01FA012F
:1001E0009C9380830895DC01FB018C919081FA013E
:1001F0009183808308959C01FB01108280E0682F29
:1002000070E0D901A80FB11D9C91911539F08F5F55
:100210004817A8F7B901CF010C94F1058417D0F75E
:1002200080E050E0461B570B90E305C06E0F7F1F28
:10023000DB019C938F5F682F70E084171506B4F381
:100240004E0F5F1FDA011C92E5CF6530A0F41CBA97
:10025000811551F080916900660F660F682B6093DD
:100260006900E99A81E0089580916900862B809366
:100270006900E89AF7CF80E008958111E89A61114A
:10028000E99A08958111E8986111E99808958831F3
:1002900008F046C08F3009F443C0282F30E0883082
:1002A00098F49091680091609093680090916B0031
:1002B00021E030E001C0220F8A95EAF7892F822BD6
:1002C00080936B0081E008958F30A8F480916800DE
:1002D00082608093680080916C002850310941E071
:1002E00050E0BA0102C0660F771F2A95E2F7862B0D
:1002F00080936C00E7CF80916800846080936800F1
:1003000080916D002051310941E050E0BA0102C0F6
:10031000660F771F2A95E2F7862B80936D00D2CF68
:1003200080E00895883138F58F3029F1682F70E02A
:10033000883058F4809168008E7F809368008BE647
:1003400090E00E94C40081E008958F3050F48091C5
:1003500068008D7F80936800685071098CE690E09A
:10036000F0CF809168008B7F8093680060517109A5
:100370008DE690E0E6CF80E00895CF92EF920F9364
:10038000843008F050C0942F9C29962B983008F0A8
:100390004AC0962F9D7F943009F445C016BC15BA0B
:1003A00014BC15BC653099F595B5986095BD94B5AC
:1003B0009D7F94BD94B5916094BD982F9D7F9130A1
:1003C00049F4569A94B5906894BD211519F094B5E6
:1003D000906494BD8250823048F4559A84B580620E
:1003E00084BD211519F084B5806184BD85B5807FF9
:1003F000482B45BD07BDE8BC80916E00807FC82AB0
:10040000C0926E0081E00F91EF90CF900895673019
:1004100031F495B5986095BD94B59260CACF94B506
:10042000907F962BC9CF80E0EECFCF92EF92FF92D4
:100430000F931F93982F843008F05FC081E06631DE
:1004400008F480E0633109F458C0811156C0342F9C
:100450003C29383008F04BC010928500109284007F
:1004600016BA109280001092810010928200809142
:1004700080006370862B8093800080918100809340
:100480008100892F8D7F813069F4219A80918000CD
:10049000806880938000211529F08091800080641D
:1004A000809380009250923068F4229A809180006C
:1004B000806280938000211529F080918000806106
:1004C0008093800080918100807F482B4093810041
:1004D0001093890000938800F0928B00E0928A00CC
:1004E00080916F00807FC82AC0926F0081E01F91C9
:1004F0000F91FF90EF90CF90089580E0F8CFCF92CA
:10050000EF920F93843008F06AC0942F9C29962BA9
:10051000983008F064C0962F9D7F943009F45FC036
:100520001092B20017BA1092B0001092B10065306C
:1005300009F045C09091B10098609093B1009091FE
:10054000B0009D7F9093B0009091B0009160909327
:10055000B000982F9D7F913069F4239A9091B0005C
:1005600090689093B000211529F09091B0009064AC
:100570009093B0008250823068F4539A8091B0001A
:1005800080628093B000211529F08091B0008061D5
:100590008093B0008091B100807F482B4093B100E0
:1005A0000093B300E092B40080917000807FC82A6D
:1005B000C092700081E00F91EF90CF900895673066
:1005C00049F49091B10098609093B1009091B0007F
:1005D0009260B8CF9091B000907F962BB8CF80E01A
:1005E000EACF08952098289A611569F057985F9886
:1005F00090917B009F7B90937B0090B7946090BF1D
:1006000090B7906490BF9091810090689093810022
:10061000811561F0809181008064809381008091D8
:100620006F00806280936F00B59A08958091810079
:100630008F7BF3CF2098811529F080B7846080BF2D
:10064000B59A089580B78B7FFACFE1E8F0E080811A
:1006500080588083B59A0895FC01608381E00895F5
:100660000F931F93009128011091290120912A01D5
:1006700030912B01A0E0B0E0409128015091290178
:1006800060912A0170912B01401B510B620B730B7F
:10069000481759076A077B0778F31F910F91089550
:1006A000249852985398259A559A549A5A985B9838
:1006B0002D985D9A5C9808955093C5004093C400AE
:1006C0002EE031E030931F0120931E011092210192
:1006D00010922001109223011092220120E130E0BB
:1006E00030932501209324019091C2009F7790932D
:1006F000C2009091C2009F7B9093C2009091C20073
:100700009E7F9093C2009091C0009D7F9093C00007
:100710009091C20090629093C2009091C2009F7E1F
:100720009093C2009091C200977F9093C2009091E5
:10073000C1009E7F9093C1009091C1009B7F9093D8
:10074000C1009091C20094609093C2009091C20049
:1007500092609093C200811529F08091C100806160
:100760008093C100611529F08091C1008860809359
:10077000C1008091C10080688093C1008091C10058
:100780008F7B8093C1008091C1008F7D8093C100D9
:10079000089566EC70E08EE191E00C948C00BC0151
:1007A0008EE191E00C946800CF92DF92EF92FF927D
:1007B0000F931F93CF937C01C42F411571F04617FF
:1007C000D8F4C42ED12C00E010E0C701800F911F97
:1007D0000E94CF0381110AC0C02F8C2FCF911F918F
:1007E0000F91FF90EF90DF90CF9008950F5F1F4F14
:1007F0000C151D0551F7F1CFC0E0EFCF9091C0006F
:1008000095FFFCCF8093C60008950F931F93CF935D
:100810008C01C0E0F801EC0FF11D8081811104C052
:10082000CF911F910F9108950E94FE03CF5FF2CFE9
:10083000942F922B983008F04BC010927C001092AD
:100840007A0010927B0010927E0090917C009F773E
:1008500090937C00811599F180917C008F7B80932F
:100860007C0080917C008F7D80937C0080917A0059
:10087000611549F1806280937A0080917A00877FC8
:1008800080937A0080917A008F7E80937A008091A5
:100890007A00887F482B40937A0080917B00887F84
:1008A000282B20937B0080917A00806880937A00C7
:1008B00080917A00806480937A0081E0089580912D
:1008C0007C008064CCCF8F7D80937A0020E0D5CFF0
:1008D00080E00895803130F590917C00907F982BD6
:1008E00090937C0010927E00863060F490917E00A0
:1008F00021E030E001C0220F8A95EAF7892F822B90
:1009000080937E0080917A00806480937A00809149
:100910007A0084FFFCCF80917A00806180937A0016
:1009200081E0089580E00895FC0180917A00806460
:1009300080937A0080917A0084FFFCCF80917A00C6
:10094000806180937A008091780090917900918302
:1009500080830895FF920F931F93CF93DF9300D06E
:10096000CDB7DEB7F62E072F0E946A04182F811527
:1009700041F0CE0101960E9494048F2D902F0E9489
:100980009404812F0F900F90DF91CF911F910F91C1
:10099000FF9008951F921FB61F9211248F939F936B
:1009A000AF93BF938091280190912901A0912A01D2
:1009B000B0912B010196A11DB11D80932801909348
:1009C0002901A0932A01B0932B01BF91AF919F9170
:1009D0008F911F901FBE1F9018951F920F920FB6F8
:1009E0000F9211242F933F934F935F936F937F93B5
:1009F0008F939F93AF93BF93EF93FF938BB190E14E
:100A000089278BB90E94250380910C0191E0980FF2
:100A1000823099F090930C01FF91EF91BF91AF91CB
:100A20009F918F917F916F915F914F913F912F9106
:100A30000F900FBE0F901F90189510920C0180918F
:100A40000D01811531F081E00E941A0310920D0111
:100A5000E3CF80E00E941A0381E080930D01DCCF98
:100A60001F921FB61F9211248F939F93809127018D
:100A70008F5F80932701809126019091000191154D
:100A800089F0803958F48F5F809326018093B300FA
:100A90009F918F911F901FBE1F901895109200017B
:100AA0008150F2CF8111FCCF81E080930001F0CF23
:100AB0001F920F920FB60F9211242F933F934F93D3
:100AC0005F936F937F938F939F93AF93BF93EF93B6
:100AD000FF930E94C903811591F42D9AFF91EF9124
:100AE000BF91AF919F918F917F916F915F914F9146
:100AF0003F912F910F900FBE0F901F9018952D983A
:100B0000EDCF8F938FB78F939F932D988BB190E1FB
:100B100089278BB99F918F918FBF8F9118958F9354
:100B20008FB78F939F932D9A8BB190E189278BB9C3
:100B30009F918F918FBF8F9118958F938FB78F93C0
:100B40009F931C9904C08BB190E189278BB99F9129
:100B50008F918FBF8F9118950E94500382E0C82E0D
:100B6000E12C09EF20E043E062E080E00E94BD015B
:100B70000091260120E046E063E081E00E947F02D0
:100B800049E150E061E081E00E945C037894C0900C
:100B90002801D0902901E0902A01F0902B0181E0FA
:100BA00091E00E94050488EB9BE00E94300388E0FE
:100BB00091E00E9405048091280190912901A09163
:100BC0002A01B0912B01AC01BD014C195D096E09E0
:100BD0007F09443F51406105710568F36C017D0157
:100BE000EACFFB01DC010D900020E9F7119701909D
:100BF0000D920020E1F70895FC018191861721F004
:100C00008823D9F7992708953197CF010895F8944B
:020C1000FFCF14
:0C0C120001427572726F0A00476F0A0001
:00000001FF
